:03000000020006F5
:09005F007508007509FF02000399
:030003000201CE29
:20006800AE82AF838E048F051EBEFF011FEC4D70F322AE82AF837590FF750A10750B278E0D
:20008800828F831202BCAE82AF83E50824FC5003020166E50875F003A49000A5730200B175
:2000A8000200DB02010D02013FC2A0D2A1D2A2D2A3750AE8750B038E828F83120293AC826A
:2000C800AD83EC240DF582ED3403F583E493F590020166D2A0C2A1D2A2D2A3750AE8750BAE
:2000E800038E828F831202BC750A64750B00120293AC82AD83EC240DF582ED3403F583E487
:2001080093F5908059D2A0D2A1C2A2D2A3750A64750B008E828F831202BC750A0A750B00CA
:20012800120293AC82AD83EC240DF582ED3403F583E493F5908027D2A0D2A1D2A2C2A375AC
:200148000A0A750B008E828F831202BCAE82AF83EE240DF582EF3403F583E493F590050872
:20016800E50824FC5003750800227F00ADB053053C7E00BD3C05BE00028043D2B690000AE7
:20018800C007120068D007ADB053053C7E00AB097C00EBB50506ECB506028027E5B0543C80
:2001A800F50920B5047F01801A20B4047F02801320B3047F03800C20B2097F048005750914
:2001C8003CC2B68F82227ED27F047D00E59025E0F59090C350C007C006C005120068D0059D
:2001E800D006D0070DBD080040E27590FF75A000C2A390C350C007C006120068D2A3C2A255
:2002080090C350120068D2A2C2A190C350120068D2A1C2A090C350120068D2A0C2B690C396
:2002280050120068D2B6C2B590C350120068D006D007D2B5C007C006120172AD82D006D0B5
:2002480007BD0102800FBD02028011BD03028013BD042180170EBE001B0F80181EBEFF01B6
:200268001F8011740A2EFEE43FFF8008EE24F6FEEF34FFFF8E828F83C007C00612007A9080
:0B0288000064120068D006D00780A9B7
:0A030D00C0F9A4B0999282F8809024
:200293007A10E4FBFCE58225E0F582E58333F583EB33FBEC33FCEB950AF5F0EC950B40067B
:0902B300FCABF0438201DADD220C
:06003500E478FFF6D8FD9F
:200013007900E94400601B7A00900317780175A000E493F2A308B8000205A0D9F4DAF27579
:02003300A0FF2C
:2002BC00E50A450B60467A01E50A25E0F50AE50B334012F50BE582950AE583950B40030AFF
:2002DC0080E6C3E50B13F50BE50A13F50AC3E582950AF5F0E583950B4005F58385F082C3A8
:0D02FC00E50B13F50BE50A13F50ADAE12214
:20003B007800E84400600A790175A000E4F309D8FC7800E84400600C7900900001E4F0A3C3
:04005B00D8FCD9FAFA
:0D00060075810B120309E5826003020003FF
:0403090075820022D7
:00000001FF
